{
  "_format": "hh-sol-artifact-1",
  "contractName": "Token",
  "sourceName": "contracts/Token.sol",
  "abi": [
    {
      "inputs": [],
      "stateMutability": "nonpayable",
      "type": "constructor"
    },
    {
      "inputs": [
        {
          "internalType": "address",
          "name": "account",
          "type": "address"
        }
      ],
      "name": "balanceOf",
      "outputs": [
        {
          "internalType": "uint256",
          "name": "",
          "type": "uint256"
        }
      ],
      "stateMutability": "view",
      "type": "function"
    },
    {
      "inputs": [],
      "name": "demo",
      "outputs": [],
      "stateMutability": "nonpayable",
      "type": "function"
    },
    {
      "inputs": [],
      "name": "name",
      "outputs": [
        {
          "internalType": "string",
          "name": "",
          "type": "string"
        }
      ],
      "stateMutability": "view",
      "type": "function"
    },
    {
      "inputs": [],
      "name": "owner",
      "outputs": [
        {
          "internalType": "address",
          "name": "",
          "type": "address"
        }
      ],
      "stateMutability": "view",
      "type": "function"
    },
    {
      "inputs": [],
      "name": "symbol",
      "outputs": [
        {
          "internalType": "string",
          "name": "",
          "type": "string"
        }
      ],
      "stateMutability": "view",
      "type": "function"
    },
    {
      "inputs": [],
      "name": "totalSupply",
      "outputs": [
        {
          "internalType": "uint256",
          "name": "",
          "type": "uint256"
        }
      ],
      "stateMutability": "view",
      "type": "function"
    },
    {
      "inputs": [
        {
          "internalType": "address",
          "name": "to",
          "type": "address"
        },
        {
          "internalType": "uint256",
          "name": "amount",
          "type": "uint256"
        }
      ],
      "name": "transfer",
      "outputs": [],
      "stateMutability": "nonpayable",
      "type": "function"
    }
  ],
  "bytecode": "0x60806040526040518060400160405280601081526020017f4d79204861726468617420546f6b656e000000000000000000000000000000008152506000908051906020019061004f92919061013c565b506040518060400160405280600381526020017f4d485400000000000000000000000000000000000000000000000000000000008152506001908051906020019061009b92919061013c565b50620f42406002553480156100af57600080fd5b50600254600460003373ffffffffffffffffffffffffffffffffffffffff1673ffffffffffffffffffffffffffffffffffffffff1681526020019081526020016000208190555033600360006101000a81548173ffffffffffffffffffffffffffffffffffffffff021916908373ffffffffffffffffffffffffffffffffffffffff1602179055506101d9565b828054600181600116156101000203166002900490600052602060002090601f016020900481019282601f1061017d57805160ff19168380011785556101ab565b828001600101855582156101ab579182015b828111156101aa57825182559160200191906001019061018f565b5b5090506101b891906101bc565b5090565b5b808211156101d55760008160009055506001016101bd565b5090565b61083f806101e86000396000f3fe608060405234801561001057600080fd5b506004361061007d5760003560e01c806370a082311161005b57806370a082311461012d5780638da5cb5b1461018557806395d89b41146101b9578063a9059cbb1461023c5761007d565b806301725a0b1461008257806306fdde031461008c57806318160ddd1461010f575b600080fd5b61008a61028a565b005b61009461034f565b6040518080602001828103825283818151815260200191508051906020019080838360005b838110156100d45780820151818401526020810190506100b9565b50505050905090810190601f1680156101015780820380516001836020036101000a031916815260200191505b509250505060405180910390f35b6101176103ed565b6040518082815260200191505060405180910390f35b61016f6004803603602081101561014357600080fd5b81019080803573ffffffffffffffffffffffffffffffffffffffff1690602001909291905050506103f3565b6040518082815260200191505060405180910390f35b61018d61043c565b604051808273ffffffffffffffffffffffffffffffffffffffff16815260200191505060405180910390f35b6101c1610462565b6040518080602001828103825283818151815260200191508051906020019080838360005b838110156102015780820151818401526020810190506101e6565b50505050905090810190601f16801561022e5780820380516001836020036101000a031916815260200191505b509250505060405180910390f35b6102886004803603604081101561025257600080fd5b81019080803573ffffffffffffffffffffffffffffffffffffffff16906020019092919080359060200190929190505050610500565b005b600360009054906101000a900473ffffffffffffffffffffffffffffffffffffffff1673ffffffffffffffffffffffffffffffffffffffff163373ffffffffffffffffffffffffffffffffffffffff161461034d576040517f08c379a00000000000000000000000000000000000000000000000000000000081526004018080602001828103825260178152602001807f596f7520617265206e6f7420617574686f72697a65642e00000000000000000081525060200191505060405180910390fd5b565b60008054600181600116156101000203166002900480601f0160208091040260200160405190810160405280929190818152602001828054600181600116156101000203166002900480156103e55780601f106103ba576101008083540402835291602001916103e5565b820191906000526020600020905b8154815290600101906020018083116103c857829003601f168201915b505050505081565b60025481565b6000600460008373ffffffffffffffffffffffffffffffffffffffff1673ffffffffffffffffffffffffffffffffffffffff168152602001908152602001600020549050919050565b600360009054906101000a900473ffffffffffffffffffffffffffffffffffffffff1681565b60018054600181600116156101000203166002900480601f0160208091040260200160405190810160405280929190818152602001828054600181600116156101000203166002900480156104f85780601f106104cd576101008083540402835291602001916104f8565b820191906000526020600020905b8154815290600101906020018083116104db57829003601f168201915b505050505081565b80600460003373ffffffffffffffffffffffffffffffffffffffff1673ffffffffffffffffffffffffffffffffffffffff1681526020019081526020016000205410156105b5576040517f08c379a00000000000000000000000000000000000000000000000000000000081526004018080602001828103825260118152602001807f4e6f7420656e6f75676820746f6b656e7300000000000000000000000000000081525060200191505060405180910390fd5b6105d96040518060600160405280602481526020016107e660249139338484610677565b80600460003373ffffffffffffffffffffffffffffffffffffffff1673ffffffffffffffffffffffffffffffffffffffff1681526020019081526020016000206000828254039250508190555080600460008473ffffffffffffffffffffffffffffffffffffffff1673ffffffffffffffffffffffffffffffffffffffff168152602001908152602001600020600082825401925050819055505050565b6107b68484848460405160240180806020018573ffffffffffffffffffffffffffffffffffffffff1681526020018473ffffffffffffffffffffffffffffffffffffffff168152602001838152602001828103825286818151815260200191508051906020019080838360005b838110156106ff5780820151818401526020810190506106e4565b50505050905090810190601f16801561072c5780820380516001836020036101000a031916815260200191505b50955050505050506040516020818303038152906040527f6eb7943d000000000000000000000000000000000000000000000000000000007bffffffffffffffffffffffffffffffffffffffffffffffffffffffff19166020820180517bffffffffffffffffffffffffffffffffffffffffffffffffffffffff83818316178352505050506107bc565b50505050565b60008151905060006a636f6e736f6c652e6c6f679050602083016000808483855afa505050505056fe5472616e7366657272696e672066726f6d20257320746f20257320257320746f6b656e73a26469706673582212200a4cd7a2415ff5d87481d6dbdf8279d0142edeb5f4cc88a6ceebbfe6b161cfb764736f6c63430007030033",
  "linkReferences": {},
  "deployedLinkReferences": {}
}